{
  "_format": "hh-sol-artifact-1",
  "contractName": "MusicNFTMarketplace",
  "sourceName": "src/backend/contracts/MusicNFTMarketplace.sol",
  "abi": [
    {
      "anonymous": false,
      "inputs": [
        {
          "indexed": true,
          "internalType": "address",
          "name": "owner",
          "type": "address"
        },
        {
          "indexed": true,
          "internalType": "address",
          "name": "approved",
          "type": "address"
        },
        {
          "indexed": true,
          "internalType": "uint256",
          "name": "tokenId",
          "type": "uint256"
        }
      ],
      "name": "Approval",
      "type": "event"
    },
    {
      "anonymous": false,
      "inputs": [
        {
          "indexed": true,
          "internalType": "address",
          "name": "owner",
          "type": "address"
        },
        {
          "indexed": true,
          "internalType": "address",
          "name": "operator",
          "type": "address"
        },
        {
          "indexed": false,
          "internalType": "bool",
          "name": "approved",
          "type": "bool"
        }
      ],
      "name": "ApprovalForAll",
      "type": "event"
    },
    {
      "anonymous": false,
      "inputs": [
        {
          "indexed": true,
          "internalType": "address",
          "name": "previousOwner",
          "type": "address"
        },
        {
          "indexed": true,
          "internalType": "address",
          "name": "newOwner",
          "type": "address"
        }
      ],
      "name": "OwnershipTransferred",
      "type": "event"
    },
    {
      "anonymous": false,
      "inputs": [
        {
          "indexed": true,
          "internalType": "address",
          "name": "from",
          "type": "address"
        },
        {
          "indexed": true,
          "internalType": "address",
          "name": "to",
          "type": "address"
        },
        {
          "indexed": true,
          "internalType": "uint256",
          "name": "tokenId",
          "type": "uint256"
        }
      ],
      "name": "Transfer",
      "type": "event"
    },
    {
      "inputs": [
        {
          "internalType": "address",
          "name": "to",
          "type": "address"
        },
        {
          "internalType": "uint256",
          "name": "tokenId",
          "type": "uint256"
        }
      ],
      "name": "approve",
      "outputs": [],
      "stateMutability": "nonpayable",
      "type": "function"
    },
    {
      "inputs": [
        {
          "internalType": "address",
          "name": "owner",
          "type": "address"
        }
      ],
      "name": "balanceOf",
      "outputs": [
        {
          "internalType": "uint256",
          "name": "",
          "type": "uint256"
        }
      ],
      "stateMutability": "view",
      "type": "function"
    },
    {
      "inputs": [],
      "name": "baseURI",
      "outputs": [
        {
          "internalType": "string",
          "name": "",
          "type": "string"
        }
      ],
      "stateMutability": "view",
      "type": "function"
    },
    {
      "inputs": [
        {
          "internalType": "uint256",
          "name": "tokenId",
          "type": "uint256"
        }
      ],
      "name": "getApproved",
      "outputs": [
        {
          "internalType": "address",
          "name": "",
          "type": "address"
        }
      ],
      "stateMutability": "view",
      "type": "function"
    },
    {
      "inputs": [
        {
          "internalType": "address",
          "name": "owner",
          "type": "address"
        },
        {
          "internalType": "address",
          "name": "operator",
          "type": "address"
        }
      ],
      "name": "isApprovedForAll",
      "outputs": [
        {
          "internalType": "bool",
          "name": "",
          "type": "bool"
        }
      ],
      "stateMutability": "view",
      "type": "function"
    },
    {
      "inputs": [],
      "name": "name",
      "outputs": [
        {
          "internalType": "string",
          "name": "",
          "type": "string"
        }
      ],
      "stateMutability": "view",
      "type": "function"
    },
    {
      "inputs": [],
      "name": "owner",
      "outputs": [
        {
          "internalType": "address",
          "name": "",
          "type": "address"
        }
      ],
      "stateMutability": "view",
      "type": "function"
    },
    {
      "inputs": [
        {
          "internalType": "uint256",
          "name": "tokenId",
          "type": "uint256"
        }
      ],
      "name": "ownerOf",
      "outputs": [
        {
          "internalType": "address",
          "name": "",
          "type": "address"
        }
      ],
      "stateMutability": "view",
      "type": "function"
    },
    {
      "inputs": [],
      "name": "renounceOwnership",
      "outputs": [],
      "stateMutability": "nonpayable",
      "type": "function"
    },
    {
      "inputs": [
        {
          "internalType": "address",
          "name": "from",
          "type": "address"
        },
        {
          "internalType": "address",
          "name": "to",
          "type": "address"
        },
        {
          "internalType": "uint256",
          "name": "tokenId",
          "type": "uint256"
        }
      ],
      "name": "safeTransferFrom",
      "outputs": [],
      "stateMutability": "nonpayable",
      "type": "function"
    },
    {
      "inputs": [
        {
          "internalType": "address",
          "name": "from",
          "type": "address"
        },
        {
          "internalType": "address",
          "name": "to",
          "type": "address"
        },
        {
          "internalType": "uint256",
          "name": "tokenId",
          "type": "uint256"
        },
        {
          "internalType": "bytes",
          "name": "_data",
          "type": "bytes"
        }
      ],
      "name": "safeTransferFrom",
      "outputs": [],
      "stateMutability": "nonpayable",
      "type": "function"
    },
    {
      "inputs": [
        {
          "internalType": "address",
          "name": "operator",
          "type": "address"
        },
        {
          "internalType": "bool",
          "name": "approved",
          "type": "bool"
        }
      ],
      "name": "setApprovalForAll",
      "outputs": [],
      "stateMutability": "nonpayable",
      "type": "function"
    },
    {
      "inputs": [
        {
          "internalType": "bytes4",
          "name": "interfaceId",
          "type": "bytes4"
        }
      ],
      "name": "supportsInterface",
      "outputs": [
        {
          "internalType": "bool",
          "name": "",
          "type": "bool"
        }
      ],
      "stateMutability": "view",
      "type": "function"
    },
    {
      "inputs": [],
      "name": "symbol",
      "outputs": [
        {
          "internalType": "string",
          "name": "",
          "type": "string"
        }
      ],
      "stateMutability": "view",
      "type": "function"
    },
    {
      "inputs": [
        {
          "internalType": "uint256",
          "name": "tokenId",
          "type": "uint256"
        }
      ],
      "name": "tokenURI",
      "outputs": [
        {
          "internalType": "string",
          "name": "",
          "type": "string"
        }
      ],
      "stateMutability": "view",
      "type": "function"
    },
    {
      "inputs": [
        {
          "internalType": "address",
          "name": "from",
          "type": "address"
        },
        {
          "internalType": "address",
          "name": "to",
          "type": "address"
        },
        {
          "internalType": "uint256",
          "name": "tokenId",
          "type": "uint256"
        }
      ],
      "name": "transferFrom",
      "outputs": [],
      "stateMutability": "nonpayable",
      "type": "function"
    },
    {
      "inputs": [
        {
          "internalType": "address",
          "name": "newOwner",
          "type": "address"
        }
      ],
      "name": "transferOwnership",
      "outputs": [],
      "stateMutability": "nonpayable",
      "type": "function"
    }
  ],
  "bytecode": "0x608060405260405180608001604052806059815260200162002b76605991396007908051906020019062000035929190620001d8565b503480156200004357600080fd5b506040518060400160405280600781526020017f4d757369634669000000000000000000000000000000000000000000000000008152506040518060400160405280600381526020017f4d464900000000000000000000000000000000000000000000000000000000008152508160009080519060200190620000c8929190620001d8565b508060019080519060200190620000e1929190620001d8565b50505062000104620000f86200010a60201b60201c565b6200011260201b60201c565b620002ed565b600033905090565b6000600660009054906101000a900473ffffffffffffffffffffffffffffffffffffffff16905081600660006101000a81548173ffffffffffffffffffffffffffffffffffffffff021916908373ffffffffffffffffffffffffffffffffffffffff1602179055508173ffffffffffffffffffffffffffffffffffffffff168173ffffffffffffffffffffffffffffffffffffffff167f8be0079c531659141344cd1fd0a4f28419497f9722a3daafe3b4186f6b6457e060405160405180910390a35050565b828054620001e690620002b7565b90600052602060002090601f0160209004810192826200020a576000855562000256565b82601f106200022557805160ff191683800117855562000256565b8280016001018555821562000256579182015b828111156200025557825182559160200191906001019062000238565b5b50905062000265919062000269565b5090565b5b80821115620002845760008160009055506001016200026a565b5090565b7f4e487b7100000000000000000000000000000000000000000000000000000000600052602260045260246000fd5b60006002820490506001821680620002d057607f821691505b60208210811415620002e757620002e662000288565b5b50919050565b61287980620002fd6000396000f3fe608060405234801561001057600080fd5b506004361061010b5760003560e01c806370a08231116100a2578063a22cb46511610071578063a22cb465146102a6578063b88d4fde146102c2578063c87b56dd146102de578063e985e9c51461030e578063f2fde38b1461033e5761010b565b806370a0823114610230578063715018a6146102605780638da5cb5b1461026a57806395d89b41146102885761010b565b806323b872dd116100de57806323b872dd146101aa57806342842e0e146101c65780636352211e146101e25780636c0360eb146102125761010b565b806301ffc9a71461011057806306fdde0314610140578063081812fc1461015e578063095ea7b31461018e575b600080fd5b61012a600480360381019061012591906117d6565b61035a565b604051610137919061181e565b60405180910390f35b61014861043c565b60405161015591906118d2565b60405180910390f35b6101786004803603810190610173919061192a565b6104ce565b6040516101859190611998565b60405180910390f35b6101a860048036038101906101a391906119df565b610553565b005b6101c460048036038101906101bf9190611a1f565b61066b565b005b6101e060048036038101906101db9190611a1f565b6106cb565b005b6101fc60048036038101906101f7919061192a565b6106eb565b6040516102099190611998565b60405180910390f35b61021a61079d565b60405161022791906118d2565b60405180910390f35b61024a60048036038101906102459190611a72565b61082b565b6040516102579190611aae565b60405180910390f35b6102686108e3565b005b61027261096b565b60405161027f9190611998565b60405180910390f35b610290610995565b60405161029d91906118d2565b60405180910390f35b6102c060048036038101906102bb9190611af5565b610a27565b005b6102dc60048036038101906102d79190611c6a565b610a3d565b005b6102f860048036038101906102f3919061192a565b610a9f565b60405161030591906118d2565b60405180910390f35b61032860048036038101906103239190611ced565b610b46565b604051610335919061181e565b60405180910390f35b61035860048036038101906103539190611a72565b610bda565b005b60007f80ac58cd000000000000000000000000000000000000000000000000000000007bffffffffffffffffffffffffffffffffffffffffffffffffffffffff1916827bffffffffffffffffffffffffffffffffffffffffffffffffffffffff1916148061042557507f5b5e139f000000000000000000000000000000000000000000000000000000007bffffffffffffffffffffffffffffffffffffffffffffffffffffffff1916827bffffffffffffffffffffffffffffffffffffffffffffffffffffffff1916145b80610435575061043482610cd2565b5b9050919050565b60606000805461044b90611d5c565b80601f016020809104026020016040519081016040528092919081815260200182805461047790611d5c565b80156104c45780601f10610499576101008083540402835291602001916104c4565b820191906000526020600020905b8154815290600101906020018083116104a757829003601f168201915b5050505050905090565b60006104d982610d3c565b610518576040517f08c379a000000000000000000000000000000000000000000000000000000000815260040161050f90611e00565b60405180910390fd5b6004600083815260200190815260200160002060009054906101000a900473ffffffffffffffffffffffffffffffffffffffff169050919050565b600061055e826106eb565b90508073ffffffffffffffffffffffffffffffffffffffff168373ffffffffffffffffffffffffffffffffffffffff1614156105cf576040517f08c379a00000000000000000000000000000000000000000000000000000000081526004016105c690611e92565b60405180910390fd5b8073ffffffffffffffffffffffffffffffffffffffff166105ee610da8565b73ffffffffffffffffffffffffffffffffffffffff16148061061d575061061c81610617610da8565b610b46565b5b61065c576040517f08c379a000000000000000000000000000000000000000000000000000000000815260040161065390611f24565b60405180910390fd5b6106668383610db0565b505050565b61067c610676610da8565b82610e69565b6106bb576040517f08c379a00000000000000000000000000000000000000000000000000000000081526004016106b290611fb6565b60405180910390fd5b6106c6838383610f47565b505050565b6106e683838360405180602001604052806000815250610a3d565b505050565b6000806002600084815260200190815260200160002060009054906101000a900473ffffffffffffffffffffffffffffffffffffffff169050600073ffffffffffffffffffffffffffffffffffffffff168173ffffffffffffffffffffffffffffffffffffffff161415610794576040517f08c379a000000000000000000000000000000000000000000000000000000000815260040161078b90612048565b60405180910390fd5b80915050919050565b600780546107aa90611d5c565b80601f01602080910402602001604051908101604052809291908181526020018280546107d690611d5c565b80156108235780601f106107f857610100808354040283529160200191610823565b820191906000526020600020905b81548152906001019060200180831161080657829003601f168201915b505050505081565b60008073ffffffffffffffffffffffffffffffffffffffff168273ffffffffffffffffffffffffffffffffffffffff16141561089c576040517f08c379a0000000000000000000000000000000000000000000000000000000008152600401610893906120da565b60405180910390fd5b600360008373ffffffffffffffffffffffffffffffffffffffff1673ffffffffffffffffffffffffffffffffffffffff168152602001908152602001600020549050919050565b6108eb610da8565b73ffffffffffffffffffffffffffffffffffffffff1661090961096b565b73ffffffffffffffffffffffffffffffffffffffff161461095f576040517f08c379a000000000000000000000000000000000000000000000000000000000815260040161095690612146565b60405180910390fd5b61096960006111ae565b565b6000600660009054906101000a900473ffffffffffffffffffffffffffffffffffffffff16905090565b6060600180546109a490611d5c565b80601f01602080910402602001604051908101604052809291908181526020018280546109d090611d5c565b8015610a1d5780601f106109f257610100808354040283529160200191610a1d565b820191906000526020600020905b815481529060010190602001808311610a0057829003601f168201915b5050505050905090565b610a39610a32610da8565b8383611274565b5050565b610a4e610a48610da8565b83610e69565b610a8d576040517f08c379a0000000000000000000000000000000000000000000000000000000008152600401610a8490611fb6565b60405180910390fd5b610a99848484846113e1565b50505050565b6060610aaa82610d3c565b610ae9576040517f08c379a0000000000000000000000000000000000000000000000000000000008152600401610ae0906121d8565b60405180910390fd5b6000610af361143d565b90506000815111610b135760405180602001604052806000815250610b3e565b80610b1d84611454565b604051602001610b2e929190612234565b6040516020818303038152906040525b915050919050565b6000600560008473ffffffffffffffffffffffffffffffffffffffff1673ffffffffffffffffffffffffffffffffffffffff16815260200190815260200160002060008373ffffffffffffffffffffffffffffffffffffffff1673ffffffffffffffffffffffffffffffffffffffff16815260200190815260200160002060009054906101000a900460ff16905092915050565b610be2610da8565b73ffffffffffffffffffffffffffffffffffffffff16610c0061096b565b73ffffffffffffffffffffffffffffffffffffffff1614610c56576040517f08c379a0000000000000000000000000000000000000000000000000000000008152600401610c4d90612146565b60405180910390fd5b600073ffffffffffffffffffffffffffffffffffffffff168173ffffffffffffffffffffffffffffffffffffffff161415610cc6576040517f08c379a0000000000000000000000000000000000000000000000000000000008152600401610cbd906122ca565b60405180910390fd5b610ccf816111ae565b50565b60007f01ffc9a7000000000000000000000000000000000000000000000000000000007bffffffffffffffffffffffffffffffffffffffffffffffffffffffff1916827bffffffffffffffffffffffffffffffffffffffffffffffffffffffff1916149050919050565b60008073ffffffffffffffffffffffffffffffffffffffff166002600084815260200190815260200160002060009054906101000a900473ffffffffffffffffffffffffffffffffffffffff1673ffffffffffffffffffffffffffffffffffffffff1614159050919050565b600033905090565b816004600083815260200190815260200160002060006101000a81548173ffffffffffffffffffffffffffffffffffffffff021916908373ffffffffffffffffffffffffffffffffffffffff160217905550808273ffffffffffffffffffffffffffffffffffffffff16610e23836106eb565b73ffffffffffffffffffffffffffffffffffffffff167f8c5be1e5ebec7d5bd14f71427d1e84f3dd0314c0f7b2291e5b200ac8c7c3b92560405160405180910390a45050565b6000610e7482610d3c565b610eb3576040517f08c379a0000000000000000000000000000000000000000000000000000000008152600401610eaa9061235c565b60405180910390fd5b6000610ebe836106eb565b90508073ffffffffffffffffffffffffffffffffffffffff168473ffffffffffffffffffffffffffffffffffffffff161480610f2d57508373ffffffffffffffffffffffffffffffffffffffff16610f15846104ce565b73ffffffffffffffffffffffffffffffffffffffff16145b80610f3e5750610f3d8185610b46565b5b91505092915050565b8273ffffffffffffffffffffffffffffffffffffffff16610f67826106eb565b73ffffffffffffffffffffffffffffffffffffffff1614610fbd576040517f08c379a0000000000000000000000000000000000000000000000000000000008152600401610fb4906123ee565b60405180910390fd5b600073ffffffffffffffffffffffffffffffffffffffff168273ffffffffffffffffffffffffffffffffffffffff16141561102d576040517f08c379a000000000000000000000000000000000000000000000000000000000815260040161102490612480565b60405180910390fd5b6110388383836115b5565b611043600082610db0565b6001600360008573ffffffffffffffffffffffffffffffffffffffff1673ffffffffffffffffffffffffffffffffffffffff168152602001908152602001600020600082825461109391906124cf565b925050819055506001600360008473ffffffffffffffffffffffffffffffffffffffff1673ffffffffffffffffffffffffffffffffffffffff16815260200190815260200160002060008282546110ea9190612503565b92505081905550816002600083815260200190815260200160002060006101000a81548173ffffffffffffffffffffffffffffffffffffffff021916908373ffffffffffffffffffffffffffffffffffffffff160217905550808273ffffffffffffffffffffffffffffffffffffffff168473ffffffffffffffffffffffffffffffffffffffff167fddf252ad1be2c89b69c2b068fc378daa952ba7f163c4a11628f55a4df523b3ef60405160405180910390a46111a98383836115ba565b505050565b6000600660009054906101000a900473ffffffffffffffffffffffffffffffffffffffff16905081600660006101000a81548173ffffffffffffffffffffffffffffffffffffffff021916908373ffffffffffffffffffffffffffffffffffffffff1602179055508173ffffffffffffffffffffffffffffffffffffffff168173ffffffffffffffffffffffffffffffffffffffff167f8be0079c531659141344cd1fd0a4f28419497f9722a3daafe3b4186f6b6457e060405160405180910390a35050565b8173ffffffffffffffffffffffffffffffffffffffff168373ffffffffffffffffffffffffffffffffffffffff1614156112e3576040517f08c379a00000000000000000000000000000000000000000000000000000000081526004016112da906125a5565b60405180910390fd5b80600560008573ffffffffffffffffffffffffffffffffffffffff1673ffffffffffffffffffffffffffffffffffffffff16815260200190815260200160002060008473ffffffffffffffffffffffffffffffffffffffff1673ffffffffffffffffffffffffffffffffffffffff16815260200190815260200160002060006101000a81548160ff0219169083151502179055508173ffffffffffffffffffffffffffffffffffffffff168373ffffffffffffffffffffffffffffffffffffffff167f17307eab39ab6107e8899845ad3d59bd9653f200f220920489ca2b5937696c31836040516113d4919061181e565b60405180910390a3505050565b6113ec848484610f47565b6113f8848484846115bf565b611437576040517f08c379a000000000000000000000000000000000000000000000000000000000815260040161142e90612637565b60405180910390fd5b50505050565b606060405180602001604052806000815250905090565b6060600082141561149c576040518060400160405280600181526020017f300000000000000000000000000000000000000000000000000000000000000081525090506115b0565b600082905060005b600082146114ce5780806114b790612657565b915050600a826114c791906126cf565b91506114a4565b60008167ffffffffffffffff8111156114ea576114e9611b3f565b5b6040519080825280601f01601f19166020018201604052801561151c5781602001600182028036833780820191505090505b5090505b600085146115a95760018261153591906124cf565b9150600a856115449190612700565b60306115509190612503565b60f81b81838151811061156657611565612731565b5b60200101907effffffffffffffffffffffffffffffffffffffffffffffffffffffffffffff1916908160001a905350600a856115a291906126cf565b9450611520565b8093505050505b919050565b505050565b505050565b60006115e08473ffffffffffffffffffffffffffffffffffffffff16611747565b1561173a578373ffffffffffffffffffffffffffffffffffffffff1663150b7a02611609610da8565b8786866040518563ffffffff1660e01b815260040161162b94939291906127b5565b6020604051808303816000875af192505050801561166757506040513d601f19601f820116820180604052508101906116649190612816565b60015b6116ea573d8060008114611697576040519150601f19603f3d011682016040523d82523d6000602084013e61169c565b606091505b506000815114156116e2576040517f08c379a00000000000000000000000000000000000000000000000000000000081526004016116d990612637565b60405180910390fd5b805181602001fd5b63150b7a0260e01b7bffffffffffffffffffffffffffffffffffffffffffffffffffffffff1916817bffffffffffffffffffffffffffffffffffffffffffffffffffffffff19161491505061173f565b600190505b949350505050565b6000808273ffffffffffffffffffffffffffffffffffffffff163b119050919050565b6000604051905090565b600080fd5b600080fd5b60007fffffffff0000000000000000000000000000000000000000000000000000000082169050919050565b6117b38161177e565b81146117be57600080fd5b50565b6000813590506117d0816117aa565b92915050565b6000602082840312156117ec576117eb611774565b5b60006117fa848285016117c1565b91505092915050565b60008115159050919050565b61181881611803565b82525050565b6000602082019050611833600083018461180f565b92915050565b600081519050919050565b600082825260208201905092915050565b60005b83811015611873578082015181840152602081019050611858565b83811115611882576000848401525b50505050565b6000601f19601f8301169050919050565b60006118a482611839565b6118ae8185611844565b93506118be818560208601611855565b6118c781611888565b840191505092915050565b600060208201905081810360008301526118ec8184611899565b905092915050565b6000819050919050565b611907816118f4565b811461191257600080fd5b50565b600081359050611924816118fe565b92915050565b6000602082840312156119405761193f611774565b5b600061194e84828501611915565b91505092915050565b600073ffffffffffffffffffffffffffffffffffffffff82169050919050565b600061198282611957565b9050919050565b61199281611977565b82525050565b60006020820190506119ad6000830184611989565b92915050565b6119bc81611977565b81146119c757600080fd5b50565b6000813590506119d9816119b3565b92915050565b600080604083850312156119f6576119f5611774565b5b6000611a04858286016119ca565b9250506020611a1585828601611915565b9150509250929050565b600080600060608486031215611a3857611a37611774565b5b6000611a46868287016119ca565b9350506020611a57868287016119ca565b9250506040611a6886828701611915565b9150509250925092565b600060208284031215611a8857611a87611774565b5b6000611a96848285016119ca565b91505092915050565b611aa8816118f4565b82525050565b6000602082019050611ac36000830184611a9f565b92915050565b611ad281611803565b8114611add57600080fd5b50565b600081359050611aef81611ac9565b92915050565b60008060408385031215611b0c57611b0b611774565b5b6000611b1a858286016119ca565b9250506020611b2b85828601611ae0565b9150509250929050565b600080fd5b600080fd5b7f4e487b7100000000000000000000000000000000000000000000000000000000600052604160045260246000fd5b611b7782611888565b810181811067ffffffffffffffff82111715611b9657611b95611b3f565b5b80604052505050565b6000611ba961176a565b9050611bb58282611b6e565b919050565b600067ffffffffffffffff821115611bd557611bd4611b3f565b5b611bde82611888565b9050602081019050919050565b82818337600083830152505050565b6000611c0d611c0884611bba565b611b9f565b905082815260208101848484011115611c2957611c28611b3a565b5b611c34848285611beb565b509392505050565b600082601f830112611c5157611c50611b35565b5b8135611c61848260208601611bfa565b91505092915050565b60008060008060808587031215611c8457611c83611774565b5b6000611c92878288016119ca565b9450506020611ca3878288016119ca565b9350506040611cb487828801611915565b925050606085013567ffffffffffffffff811115611cd557611cd4611779565b5b611ce187828801611c3c565b91505092959194509250565b60008060408385031215611d0457611d03611774565b5b6000611d12858286016119ca565b9250506020611d23858286016119ca565b9150509250929050565b7f4e487b7100000000000000000000000000000000000000000000000000000000600052602260045260246000fd5b60006002820490506001821680611d7457607f821691505b60208210811415611d8857611d87611d2d565b5b50919050565b7f4552433732313a20617070726f76656420717565727920666f72206e6f6e657860008201527f697374656e7420746f6b656e0000000000000000000000000000000000000000602082015250565b6000611dea602c83611844565b9150611df582611d8e565b604082019050919050565b60006020820190508181036000830152611e1981611ddd565b9050919050565b7f4552433732313a20617070726f76616c20746f2063757272656e74206f776e6560008201527f7200000000000000000000000000000000000000000000000000000000000000602082015250565b6000611e7c602183611844565b9150611e8782611e20565b604082019050919050565b60006020820190508181036000830152611eab81611e6f565b9050919050565b7f4552433732313a20617070726f76652063616c6c6572206973206e6f74206f7760008201527f6e6572206e6f7220617070726f76656420666f7220616c6c0000000000000000602082015250565b6000611f0e603883611844565b9150611f1982611eb2565b604082019050919050565b60006020820190508181036000830152611f3d81611f01565b9050919050565b7f4552433732313a207472616e736665722063616c6c6572206973206e6f74206f60008201527f776e6572206e6f7220617070726f766564000000000000000000000000000000602082015250565b6000611fa0603183611844565b9150611fab82611f44565b604082019050919050565b60006020820190508181036000830152611fcf81611f93565b9050919050565b7f4552433732313a206f776e657220717565727920666f72206e6f6e657869737460008201527f656e7420746f6b656e0000000000000000000000000000000000000000000000602082015250565b6000612032602983611844565b915061203d82611fd6565b604082019050919050565b6000602082019050818103600083015261206181612025565b9050919050565b7f4552433732313a2062616c616e636520717565727920666f7220746865207a6560008201527f726f206164647265737300000000000000000000000000000000000000000000602082015250565b60006120c4602a83611844565b91506120cf82612068565b604082019050919050565b600060208201905081810360008301526120f3816120b7565b9050919050565b7f4f776e61626c653a2063616c6c6572206973206e6f7420746865206f776e6572600082015250565b6000612130602083611844565b915061213b826120fa565b602082019050919050565b6000602082019050818103600083015261215f81612123565b9050919050565b7f4552433732314d657461646174613a2055524920717565727920666f72206e6f60008201527f6e6578697374656e7420746f6b656e0000000000000000000000000000000000602082015250565b60006121c2602f83611844565b91506121cd82612166565b604082019050919050565b600060208201905081810360008301526121f1816121b5565b9050919050565b600081905092915050565b600061220e82611839565b61221881856121f8565b9350612228818560208601611855565b80840191505092915050565b60006122408285612203565b915061224c8284612203565b91508190509392505050565b7f4f776e61626c653a206e6577206f776e657220697320746865207a65726f206160008201527f6464726573730000000000000000000000000000000000000000000000000000602082015250565b60006122b4602683611844565b91506122bf82612258565b604082019050919050565b600060208201905081810360008301526122e3816122a7565b9050919050565b7f4552433732313a206f70657261746f7220717565727920666f72206e6f6e657860008201527f697374656e7420746f6b656e0000000000000000000000000000000000000000602082015250565b6000612346602c83611844565b9150612351826122ea565b604082019050919050565b6000602082019050818103600083015261237581612339565b9050919050565b7f4552433732313a207472616e736665722066726f6d20696e636f72726563742060008201527f6f776e6572000000000000000000000000000000000000000000000000000000602082015250565b60006123d8602583611844565b91506123e38261237c565b604082019050919050565b60006020820190508181036000830152612407816123cb565b9050919050565b7f4552433732313a207472616e7366657220746f20746865207a65726f2061646460008201527f7265737300000000000000000000000000000000000000000000000000000000602082015250565b600061246a602483611844565b91506124758261240e565b604082019050919050565b600060208201905081810360008301526124998161245d565b9050919050565b7f4e487b7100000000000000000000000000000000000000000000000000000000600052601160045260246000fd5b60006124da826118f4565b91506124e5836118f4565b9250828210156124f8576124f76124a0565b5b828203905092915050565b600061250e826118f4565b9150612519836118f4565b9250827fffffffffffffffffffffffffffffffffffffffffffffffffffffffffffffffff0382111561254e5761254d6124a0565b5b828201905092915050565b7f4552433732313a20617070726f766520746f2063616c6c657200000000000000600082015250565b600061258f601983611844565b915061259a82612559565b602082019050919050565b600060208201905081810360008301526125be81612582565b9050919050565b7f4552433732313a207472616e7366657220746f206e6f6e20455243373231526560008201527f63656976657220696d706c656d656e7465720000000000000000000000000000602082015250565b6000612621603283611844565b915061262c826125c5565b604082019050919050565b6000602082019050818103600083015261265081612614565b9050919050565b6000612662826118f4565b91507fffffffffffffffffffffffffffffffffffffffffffffffffffffffffffffffff821415612695576126946124a0565b5b600182019050919050565b7f4e487b7100000000000000000000000000000000000000000000000000000000600052601260045260246000fd5b60006126da826118f4565b91506126e5836118f4565b9250826126f5576126f46126a0565b5b828204905092915050565b600061270b826118f4565b9150612716836118f4565b925082612726576127256126a0565b5b828206905092915050565b7f4e487b7100000000000000000000000000000000000000000000000000000000600052603260045260246000fd5b600081519050919050565b600082825260208201905092915050565b600061278782612760565b612791818561276b565b93506127a1818560208601611855565b6127aa81611888565b840191505092915050565b60006080820190506127ca6000830187611989565b6127d76020830186611989565b6127e46040830185611a9f565b81810360608301526127f6818461277c565b905095945050505050565b600081519050612810816117aa565b92915050565b60006020828403121561282c5761282b611774565b5b600061283a84828501612801565b9150509291505056fea26469706673582212205d3fd8989667ad5b9276b30c12b1652231b54b49443ac1f81135c8ea8f2dbc4164736f6c634300080a003368747470733a2f2f626166796265696767786a6f666a71337972696d73346c6f6c6a73687935766533326c6878656b37686c6a78703365717372737a737761327062752e697066732e6e667473746f726167652e6c696e6b2f",
  "linkReferences": {},
  "deployedLinkReferences": {}
}